:400000000040002011000000710400007104000008B500F02FFAC04670B572B6324D80260024F6002C60321C0021304801F042FA321C00212E4801F03DFA2E4A99231B04FD
:4000400013602D4A3C2014602C4A2D4E14602D4A13602D4B022219780A431A702B4A11788143142001431170197816220A431A70274A202313602749274A10201160274AFE
:4000800013601223336000F011FD254A254BFA201A60254B02221968C0000A431A60234A234B1A602B68082293432B6000F030FD204800F089FD204B902212011A601F4A77
:4000C0001F4B1A601F4B802212061A601E4B40221A601E4B1E4A1C600323346013601D4A13601D4B1C6070BD6CF02E4000300F4000400F400001024000000240080004402B
:400100003000104010500F4000700F4001700F40000104403610030008010440180104400600008004010B4078002E406A2D00007C002E40DC0500000003014040FF0080B8
:400140000000014008010B40040101400C020B403000304030003140000E3F4010B5064C2378002B07D1054B002B02D0044800E000BF0123237010BDC00300200000000029
:400180008C10010008B5084B002B03D00748084900E000BF07480368002B03D0064B002B00D0984708BDC046000000008C100100C4030020C80000200000000008B500F08E
:4001C00011F803E000F0D4F800F088F800F082F8032001F077F900F0E9F80228F2D100F0D1F8EFE710B562B6032000F0D1FC00F0BDFC1C4800F046FB00F0F8F800F010FED3
:4002000000F014F9012000F0EDFB00F0F5FC002000F0E8FB00F06EFE012000F021FE8020C00500F0C7FD00F081FD00F055FE002000F06EFC00F004F900F0DEFC00F00AF97A
:4002400000F03CFB084800F0BFFB00F035F8074C2378012B04D101F03DF92378012BFAD010BDC046C503000000110100961D002008B5012806D0262803D10D4B1B78042B21
:400280000CD008BD002000F09BF9002802D0002000F098FC074800F097FBF2E7002000F08FF90028EDD0002000F08CFCE9E7C046961D00202411010010B5054800F030F992
:4002C000041E02D0002000F07DFC201C10BDC0467102000008B501F0FDF808BD10B500F0A4FB041C02F08AFDFD220240042A05D0022807D1201C00F09CFB10BD00F056F876
:40030000042829D000F052F804280FD000F04EF80328EFD1002000F04FF8012000F06EFB00F05CFC002000F069FBE3E7012000F043F8022000F092FB00F088FB012000F06C
:400340005DFB00F04BFC002000F058FB00F074FB002000F083FBCDE7012000F02DF8012000F040FB00F048FC002000F03BFBC1E7034B1A78012A01D802221A707047C046F7
:40038000CC00002008B500F0BDFA064B1B681B04DB0FC018431E98410423181A024B187008BDC04608022440CC000020014B18787047C046CC000020014B18707047C04695
:4003C000CC00002008B500F067FE430709D400F063FE8023DB00184202D0181C00F066FE08BD042000F062FEF1E7C04608B500F081FD0020012100F095FD0120012100F01C
:4004000091FD0020012100F0B1FD0120012100F0ADFD0020044900F015FE0120202100F011FE00F059FD08BDFF3F000008B500F061FD012000F0BEFD00F04EFD08BDC0467A
:4004400008B500F057FD8020400000F0B3FD00F043FD08BD08B500F04DFD012000F0C8FD8020400000F0C4FD00F036FD08BDC046FEE7C046F8B5104F002F18D00F4E00252A
:40048000B46830687268002C05D0031C02CB02C2191A8C42FAD1F1680023002903D0D55004339942FBD1013F1036002FE8D100F0C3FFFFF783FEFEE7010000000817010019
:4004C00038B5124B01211A68114C8A431A60114800220023104D04E00133A1500432302B08D0011C032BF7D851590133A1500432302BF6D1FFF790FD084B00221A60034BFC
:40050000012219680A431A6038BDC04600001040000000207104000000000000C000002030B51B4D8BB02B78041C002B19D0002C23D01849182204A800F0B3FF062300936D
:40054000154B164801936E23FF330293144904AB144A00F0D5FF144B1C6000280FD00BB030BD124A1370124A1370124A137000F087F901232B70002CDBD10120EFE70E4B25
:4005800001221A700D2109220C480CF0E9F9E6E7DC0300208011010000120100A1060000D0120020C40A0000C81200209F1D0020981D00209E1D0020961D0020801301002E
:4005C000031C10B50120022B05D8164A1278042A02D00420FF3010BD134C21780A42F8D11248002B11D12422524202824268A021118051800E4A13700AF00EFB0028EAD182
:400600002278042313432370E5E7012BF2D196220282C8214268C90011808021C9015180E8E7C046961D00209F1D0020D00000209E1D00207047C046437800781B02184339
:400640007047C04638B58389041C0025092B01D0281C38BD04300021221C40230CF098F9051E05D00C4B01211A788A431A70EFE76068FFF7E1FF830706D5084B82201B6813
:400680004000211C9847EDE7044B06201B68FF30211C9847E6E7C0469F1D0020C8120020F0B5694C0123227883B01343051C0E1C23704C2814D8654A8300D3589F46644B4E
:4006C0001A78022A0CD02178C80709D520780421014200D1A9E003221A7023788B432370237811221A4208D02378012293432370584B281C1B68311C984703B0F0BD564B55
:4007000000225A701A70EBE70727684600230770437002F0A2FB6A46012368461770537002F09BFB4D4F38688379002B47D10378002B0ED14378002B0BD18378002B08D1A4
:40074000C378002B05D10379002B02D14379002B35D000F0C3FE38680021FFF76BFF38680121FFF767FF3FE04988162950D830880BF082FBB4E70A78394B1A70B0E7237803
:400780009806ADD4374B1A78102AA9D10522DA70A6E72F4B04221A70A2E72F4F0222381C00F07FFE3978304B4900591802222F4800F077FE94E7264B02221A7090E72C4BD0
:4007C0002C4F1B78381C3B702B4B1B787B702B4B1B78BB7000F082FE381C0021FFF72AFF381C0121FFF726FF00200AF00DF9184B04221A7074E7081CFFF724FF2378DA07E8
:4008000000D56DE7002805D130680BF08FFB67E71721ACE76A4612239370B3896946D070306813800BF01CFB5AE727780820384204D0197023788343237051E7032A00D003
:400840004EE719704CE7C0469F1D002080150100961D0020C81200209C1D0020E4000020981D00208401002000150100941D00207CF1FF0FE80000207DF1FF0F7BF1FF0F8B
:400880007047C04610B5094B802464001C60084B186600F0CAF8074BC02219680A431A6000F0C7F8044B1C6010BDC04680E100E00000002008E400E000E100E010B5084C8B
:4008C0002378002B03D100F025F801232370054B8022196812060A431A6000F067F810BD000400200000244004491F220B681340082BFBD0024B18607047C0460802244062
:4009000040022440024B1F201B6818407047C04608022440134A144B10B51A60134A00231360134A012111601248134A0724026012480460124803601248016012490A6062
:40094000124A04211360124A1160124A1360124A1360124A1360124A1360124A1360124A136010BD0D000002000024404000244048002440000324400700008004032440F3
:400980001003244044002440000224400402244050002440880E2440C80E2440480F2440080F2440C80F2440880F2440044B054A19680A40902109040A431A607047C04649
:4009C00000010240FFFF0FFF10B5041C00780134002806D00134FFF787FF631E18780028F8D110BD044B0222196840009143C9B202400A431A60704700010440044B01229E
:400A000019689143C9B202400A431A607047C04600010440000000000230800803D00138FDD1C046C046C0467047EFF3108072B6704780F310887047034B802219681206E2
:400A40000A431A607047C04608010B40024B1A68520052081A60704708010B4010B5041CFFF7E3FF054B03211A680C4007218A4314431C60FFF7DDFF10BDC04600010B40E6
:400A800038B5041CFFF7D1FF064B07221D6806491440E2042C1C0C4014431C60FFF7C9FF38BDC04600010B40FFFFC7FF10B586B0041CFFF7BAFF0E4B0E491A6802AB02926E
:400AC0000D4A126803920D4A1419033C227804920B4A126805920B4A009201930A4B00AA1A600A4A11601B68FFF7A3FF06B010BD08010B401700008000010B40B4160100DE
:400B000030001040B6EA00000800104004001040F8B5104B01221968041C0A431A600E4A0E4B1A600E4B8022196812020A431A6000280DD00B4F0C4E01253878FFF76CFFE4
:400B400033681D4204D1013C002CF6D1102000E00020F8BD60F02E400220000078002E4010002E40880100200C002E40054B01211A688A431A60044B044A19680A401A600D
:400B80007047C04660F02E4010002E40FF7FFFFF0A4B07221B6810B51340041C022B01D101BE10BDFFF741FF054B03221968144091430C431C60FFF73CFFF2E700010B4087
:400BC00064F02E4001BE704708B5034B1B785843FFF722FF08BDC0468801002008B5FFF724FF044B04211A688A431A6030BFFFF720FF08BD10ED00E030B583B0FFF715FF1E
:400C00000E4B0F4C1A68051C520052081A600D4B02201A880C4B92B21A600C4B042219680A431A6023680193FFF72AFF30BF019B281C2360FFF7FDFE03B030BD00000B40D5
:400C400000010B4052F1FF0F0C000B4010ED00E0F8B5314B01211A68900722D52F4C002323602F4B1D6800232D042D0C2C4E2D4F07E0002B11D0022B0AD13B689D4206D151
:400C80002368012BF5D133681B0C9D42F8D0F8BD0020FFF797FF0023F0E733681B041B0CECE71A68520A114206D01C4C21601C4B1D6801232D0CD9E71A68184C520C0A40B8
:400CC00005D002232360174B1D680223CEE72260154A6160156803200540A5601B685B08194202D11368834313600B4901230A6813430B6002220B681A42FCD02368012B41
:400D0000D5D0002BADD0022BDDD00020FFF75AFF00252368AAE7C04610020B400404002000020B4004020B400C020B401C4B70B51A68C0231B021A4203D11A4C2368002B00
:400D400000DB70BD184D2B689B0F04D023685B005B082360F5E7FFF768FE061CFFF778FF23685B005B082360104B5A68002A03D1301CFFF75EFEE4E70D4A01211068884356
:400D80001060126898685208114205D129680322914302400A432A6000225A60E8E7C04600010B4004010B400C020B400404002010020B4070B5174C051C23689B0F9B0778
:400DC000984212D0FFF731FE061CFFF741FF2368AD0F9B009B08AD071D430F4B25605A68002A03D1301CFFF724FE70BD0B4A0121106888431060126898685208114205D1CA
:400E000021680322914302400A43226000225A60E8E7C0460C020B400404002010020B400D4B01211A6810B58A431A601A68022082431A60094A30241068A043102420430C
:400E4000106010680724A043014311601968802212060A431A6010BD00F02E4000FF2E401B4B021C0121186870B50C1C0440002A1AD0012A04D00020FFF7A4FE201C70BD42
:400E80001968022081431960124907260D68B5432843086008683025A84320252843086019680A431A60E9E71A6802208A431A601A6882431A60074B30201A6882431020E5
:400EC00002431A601A680720824311431960D5E700F02E4000FF2E4008B5FFF7A6FD044BC022196812020A431A60FFF7A2FD08BD00010B4010B5FFF798FD084B084A196872
:400F000080241140E4012143196019680A40802109020A431A60FFF78CFD10BD00010B40FF3FFFFF38B5041C0D1C022813D80D4BE0001A68431CDA40131CDA070AD40A4B27
:400F400003221968141C8440A14315408540081C2843186038BD0020FFF734FE0020FFF731FEE4E710020B400C020B4038B5041C0D1C012807D90020FFF724FE022C02D058
:400F80000020FFF71FFE094BE4001A68631CDA400123134208D1064A02341168A3409943A5400C1C2C43146038BDC04610020B400C020B400D490B6803430B60C30703D5DE
:400FC00002220B681A42FCD0C30505D58022074992000B681342FCD0C30305D58022034992020B681342FCD07047C04610020B40124B1A68C0231B021A4216D11049022209
:401000000B6883430B60C30710D4C30505D580220B4992000B681342FCD1C30305D58022074992020B681342FCD170470B681A42EBD00B681A42F9D1E7E7C04600010B40EA
:4010400010020B4038B5041C0D1C012802D90020FFF7B8FD0D4B5D201B689B0F00D1C920FFF7B2FD0A4B0B491A682401A1408A43A540141C2C431C60044B1F201B689B0FF4
:4010800000D14320FFF7A0FD38BDC0460C020B4008020B40FFFF0000024B1868024B18407047C04610020B4004040400F8B5061CFFF7BBFC1A4CC02523682D02071C2B4219
:4010C00024D0FFF7B2FC2268164B8021C9011A400A432260226813408022120213432360FFF7A7FC104B114A19681640104A0A4016431E601B68FFF798FC23681D4325604F
:40110000FFF797FC381CFFF794FCF8BD064B074A19681640064A0A4016431E601B68F1E700010B40FF3FFFFF10020B4004040400FBFBFBFF01607047016070471F4B20496E
:401140001A78204B12021B781A431F4B1B7809781B020B431D498B422AD0D42109018B4222D01B490B601B4B1A601B4B1B4A1B7812781B0213431A4A134200D1194B1A4A3E
:4011800013601A4B1A4A1B7812781B021343194A934207D0184A934204D0052B02D0174A13607047164BFAE7042ADAD1154BD8E7072AD6D1134B0422D3E7C046D9F0FF0F8F
:4011C000DEF0FF0FD8F0FF0FDFF0FF0F580B00006C002E4074002E40DBF0FF0FDAF0FF0FFFDFFFFF0220000078002E40DDF0FF0FDCF0FF0F0F0F00000505000080002E40E1
:40120000050F0000580D000008B5FFF7DDFC08BD08B500F04DF808BD08B500F051F808BD08B500F04DF8034800F02AF8002000F02DF808BDD112000008B5024800F004F853
:4012400008BDC046D112000010B5094B802464011C60084B1867FFF7E8FB074BC0211A688A431A60FFF7E5FB044B1C6010BDC04680E100E0000000200CE400E000E100E015
:40128000014B18677047C0460000002010B5041CFFF7CBFB054BA2011968C024A1430C1C14431C60FFF7C5FB10BDC0460CE400E0024B802252011A607047C04600E100E01B
:4012C000024B802252011A607047C04680E100E008B50FF0C7FE08BD002934D00123002210B488422CD301242407A14204D2814202D209011B01F8E7E400A14204D28142E9
:4013000002D249005B00F8E7884201D3401A1A434C08A04202D3001B5C0822438C08A04202D3001B9C082243CC08A04202D3001BDC082243002803D01B0901D00909E3E7E8
:40134000101C10BC7047002801D00020C04307B4024802A14018029003BDC046D90000000029F0D003B5FFF7B9FF0EBC4243891A1847C046002941D010B4041C4C40A44637
:4013800001230022002900D54942002800D5404288422CD301242407A14204D2814202D209011B01F8E7E400A14204D2814202D249005B00F8E7884201D3401A1A434C0811
:4013C000A04202D3001B5C0822438C08A04202D3001B9C082243CC08A04202D3001BDC082243002803D01B0901D00909E3E7101C6446002C00D5404210BC7047002806D04E
:4014000003DB0020C043400801E08020000607B4024802A14018029003BDC046190000000029EBD003B5FFF7A7FF0EBC4243891A1847C0467047C04670B50E4B0E4D002422
:40144000ED1AAD101E1CAC4204D0A300F35898470134F8E710F046F9084B094D0024ED1AAD101E1CAC4204D0A300F35898470134F8E770BDF0160100F0160100F0160100DC
:40148000F816010030B50023934208D0C55C0133CC18013C2478A542F6D0281B00E0002030BD10B50023934203D0CC5CC4540133F9E710BD031C8218934202D019700133AB
:4014C000FAE7704710B501F04BFC10BD10B501F05DFC10BD10B500F067F910BD10B50749044609780220002907D1204601F06FFC002802D1204609F071FB10BDA2020020B0
:40150000FFB585B0002568460E9F057339481C460078002802D0082009B0F0BD10990F9801900097029105A807C800F067F80028F2D10120694603AA0D73002C1BD00021F1
:4015400013E08B00E55A082D09D91E19B678002E05D0083DE55213785B1C137003E0042901D2012003E0491CC9B2B942E9D31178042900D300200028CED110990F9800F000
:40158000A1FF002801D00120C6E701F0FFFB1A480599016021888180A188C180A27A0272A17B4172A089012540084843A0810220A073208950432081A5726846037B224605
:4015C0000799069800F0A2F80028A5D16846094C007B607001F0E2FB00289DD1064806F0D7FC002898D106F0F3FC002894D1257092E700009801002020040020FFB53A4F71
:401600001C4603463F780020364A0A9E0B9D002F12D100290FD0029991420CD3002B0AD0002C08D00999042905D3002E03D0FF216E318D4202D2012004B0F0BD00210A46EB
:401640000D463FE08B001E19B678002E36D0E35A002B33D073435B199DB20B0000F048F806040E15191D253F2388FF27A678233BEB37BB42DFD2032EDDD31FE0A3880C2B8F
:40168000D9D91A4EB342D6D818E02389302BD2D114E0A389482BCED110E0228A134E1346233B223EB342C6D208E0A38A0F4F1E46233E223FBE42BED29342BCD80028BBD1B2
:4016C000491CC9B2099B9942BCD319461C2251434A190449521802998A42ACD8ACE70020EEE70000D808000098010020DCFF000030B47446641E2578641CAB4200D21D466B
:40170000635D5B00E31830BC18470000FFB50F4606460024384381B01D46800701D0012438E0FFF789FDFFF777FD00F097FA00282ED100F0D3FB00282AD11849084600F01D
:40174000F5FE0004000C23D13000154E04D03060B7800020F0803581AD1DEFB23946039800F046F804000ED1B088F2880837801AF9B280B201F0CAF9002801D0012407E047
:40178000E8B200F019F900F031F906490120087000F076FA204605B0F0BD0000DD1800002C0400209A01002010B503480078012801D101F04DF810BD9A01002070B5084BAA
:4017C0000446DA889E8800205518B54206D81D68AA182260DA885118D98070BD032070BD2C04002001480089704700002C040020F0B587B007460D460020890000900691D6
:401800006846FFF7DBFF844600285DD1304800990160002117E02E4B88001A680629115406D22C4C0419667882185670628805E0C419203CA67A8218567022891B68C01830
:40184000491C4280C9B2A942E5D300242DE0601CC2B2059025E01E4FA30039689600581840887118039604904E88B04217D938466F46FE80B6464F786E4677710297049F2F
:401880004F800168039F5E18767879184E700168764659184E800068029F18184770521CD2B2AA42D7D30598C4B2AC42CFD36046002809D168460699FFF780FF84460028C0
:4018C00002D1054900980860604607B0F0BD00009C01002018170100A00100207047000010B5002809D005494A68002A05D0011F08788000105801F0B7F810BD9C010020E1
:4019000010B50446FFF76EFFC0B2801DA0420CD307484068002808D0A100405801F016F8002801D00470001D10BD002010BD00009C010020F8B516460D460446FFF752FF48
:40194000C0B2801DA04203D20020C0430090F8BDB2B2E9B2684601F01FF80099481C03D0024AA000526811500098F8BD9C010020F8B50746FFF736FF801DC6B20A490020F6
:4019800005460C680DE06178002907D06188B94202D32078FFF7B4FF002804D1241D6D1CEDB2B542EFD3F8BD9C01002010B5002801D0FFF795FF10BD70B50646094800251B
:4019C00004680BE06178002905D062882078121D0023FFF7AFFF241D6D1CEDB2B542F1D370BD00009C010020002070471CB5002469460C70142001902346054A05480CF076
:401A00007BFF04480068401C00D1FF2420461CBD691A0000A40100203EB5124A0146FF2000230124126800290DD0012914D0042908D104206946009308814B8110460CF003
:401A400056FF80B23EBD6846009304814381694610460CF047FFF4E768460093048143816946EBE7A401002070B545890468416800890300FFF73CFE06240408081D212404
:401A8000002005F05BFA1BE0022908D0C8B22A4621460BF0DBF92046FFF788FF10E002202A4621460BF0D2F92946204600F00AF806E000200CF014FC02E020460CF0A2FF4E
:401AC000002070BD014B0022DB681847A801002070B5448905680089022803D0032809D0FF2070BD2246094C0023A46829460120A04708E0FFF7EAFC241DA2B2002329463D
:401B0000022006F028F9002070BD0000A801002070470000024800214160018041807047A801002070B50C46002186B016460391012802D0022859D116E003A9012006F00B
:401B400062F901281BD1039D324621462846FFF7A8FC0095287801900220694608814E816846FFF7B5FF41E0214D002B686809D0049004A9022006F046F901281DD00220F4
:401B800006B070BD002812D0298840182146FFF788FC28880024801980B228806988091D884206D12C801348FFF792FF03E00320E6E788421AD96C6018E004986860E278AF
:401BC000A378110219430B4A698000231060E3565360032313815181A1788170E178C1706178417021780170042028800020C7E7A8010020380400203EB515460C46022861
:401C000003D004280CD000203EBD0091019002206946088107484A8100680CF068FE07E00BF014F9044B0022DB6829462046984701203EBDA4010020A8010020014AD160D1
:401C400090607047A8010020034801688068081A0A214843000970474404002010B5FFF7DFFA542204490548FFF71BFC03490120C870002010BD000034170100240700207E
:401C800010B5FFF7C5FA10BD70B5134C2368002B08D0207B1149C20705D04008400020738868A08070BD88680B4AA18880B29268814203D90A4D691A091802E0814202D233
:401CC000411A5118A160A080A0689842EAD300F015F80CF029FE70BD44040020C0102E40FFFF000010B508461946FFF7A7FF10BD704710B5FFF780FF10BD0000034800216A
:401D0000016041608160C160704700004404002010B502000DD0FFF7F1FF074C0321207B0843207310010A21FFF71AFB2060002010BDFF2010BD00004404002000B50448FD
:401D40000A21806848430209FFF7D8FF104600BD440400200248007B8007C00F704700004404002010B537490868002802DA364B01221A7002229043086034480069314993
:401D8000C00B4031096A08425AD0012000F074FA2E482F497C30FFF7CFF92A480E216C30FFF7CAF9294820218430FFF7C5F9274814219C30FFF7C0F92448FF21C131A430A8
:401DC000FFF7BAF92148FF212F31B030FFF7B4F91E482049BC30FFF7AFF91C481E49AC30FFF7AAF91C491948491CB430FFF7A4F916481A49B830FFF79FF914481849CC30A3
:401E0000FFF79AF9114817490830FFF795F90F481549A830FFF790F90C4814498830FFF78BF90A4812498C30FFF786F907481921C9029030FFF780F9FFF780F9002010BDF8
:401E4000FF2010BD00F02E40B801002000002E4055650000320300002F3F00003102000010520000EC160000FA12000031D000003AE3000070B50646581C80B245086D00E2
:401E8000002408E0304600F07FF81055000A1119A41C4870A4B2AC42F4D3D80705D0D0182038D15CC47FD454C17770BD30B50A4C002100195B1E07E0541864782502545C38
:401EC0002C430480891C89B29942F5DB994201D1515C018030BD000000102E4010B5FF2000F0CAF90F49FF2048700E481021801D41800121417001700A490020C91C48701F
:401F0000FFF730FF04000AD100F0DEF807210648FFF710F9044807211830FFF70BF9204610BD0000B8010020CC112E4030B504465B1C1804450C002308E0204600F024F8C5
:401F4000241D59005B1CA4B250529BB2AB42F4D330BD000070B500210A4D5B1E0AE0541864782602545C344346193480001D891C80B289B29942F2DB994202D1515C401935
:401F8000018070BD00102E40014940180088704700102E40014A80180180704700102E4010B50B490020487000F08EF8002000F089F9002000F076F907210648FFF7BAF867
:401FC000044807211830FFF7B5F8002010BD0000BB010020CC112E4010B506480078012803D102210448FFF7A7F802490020C91E087010BDBB01002070F02E4010B50B468B
:40200000062812D006DC01280CD0032801D1FFF7C7FF10BD0A28FCD00B28FAD105480078107010BDFFF75AFF10BD1146184600F065F910BDBE010020F8B5204DAC6A0127F2
:40204000A0071F4E002816DA307806280ED1286A384328621B480069F903084381B219481030FFF769F8042000F006F9134802212830FFF75FF8E00711D0062000F0FCF8A2
:402080000F49FF20C91E48707078002802D1686B38436863094801212830FFF74BF8E0050BD53078042802D1052000F0E5F80348FF2101312830FFF73DF8F8BD40F02E4039
:4020C000BB01002000002E4010B503212348FFF733F80120FFF798F820483038406A204C80076178800F890001431C480C38FFF723F86078002808D0401E022181401820CD
:40210000FFF78EF9C000083800E0B82081B21548FFF712F81348032109021438FFF70CF810481149B830FFF707F8452189010F48FFF702F80D480321001FFEF7FDFF0C4966
:402140000C48FEF7F9FF0B480B496038FEF7F4FF084801218838FEF7EFFF10BD70F02E40BE010020D8102E4090890000041E2E40FF0F000058122E4020900000044800681F
:402180004007400F022801D0002070470120704700010B4000B5FFF7F1FF002805D009480168C908C900016000BD0748016A490849000162054801690122D20391430161ED
:4021C00000BD000000010B4040F02E4000002E400849087806280BD148780749002803D1486B400840004863C86A01221043C86270470000BB01002040F02E400148007839
:4022000070470000BB01002002484078022800D001207047B801002000B50300FFF768FA080D050D0B070507090D012000BD032000BD042000BD022000BDFF2000BD000099
:40224000074A9168D26889B2064B92B2994204D105498A4201D1012100E000210170704780002E4033D000003FE300000149487070470000BB01002010B50446FEF7CCFFAC
:40228000072C01D9FF2C01D102480470FEF7C0FF10BD0000BB0100200149487070470000B801002010B5064A012805D01921C9021046FEF741FF10BD1D21C902F8E700000F
:4022C00090002E4010B50A4A141D012808D009491046FEF731FF08492046FEF72DFF10BD04491046891CFEF727FF0349491DF3E788002E4031D000003AE300000078074A57
:40230000FF2803D04C2804D9553803E01078087070474F380870107070470000BA010020F0B50122002830D000292ED00224420600D003246D2342065B06D21800D0641C2B
:40234000034600221EE00C2516466E43104D00277519AF720E4F002ABB51696007D0661EB24209D106466D367606760E05E05E06760E8027BE1B00E080269B198919521C78
:402380002E81D2B2A242DED300221046F0BD0000C4050020074900200C2242435218927A012A05D0401CC0B20428F5D30020704701207047C4050020F8B5044616460F00F2
:4023C0000BD0184D6868A04203D9FF306E30A04203D3FF206E30864201D90120F8BD2046FFF750F800281BD0324639462046FFF758F8F0B200210C224A43521913895668B8
:40240000F718A74208D90127A41B1B1B9772834206DAC01A1469C0B2491CC9B20429EAD30020F8BDC405002010B500F05BF80648FF22C1686E320C460448FFF732F803495D
:402440002046FFF76DFF10BDC401002054040020002070470020054A002902D0012902D002E0506000E0906000207047C401002070B5084C154608460549A26889182A4684
:40248000FFF70FF8A0684019A06028B270BD000054040020C40100203EB50A226946FFF7E7FF044606480A2200686946FEF7EAFF002802D00020C0433EBD20463EBD00007E
:4024C000C4010020002803D0FF226E32914201D2FF20704702490A61C860002070470000C4010020024800214160816070470000C401002070B5074C15460548626880181A
:402500002A46FFF759FF60684019606028B270BD54040020C401002010B503490A220968FFF7E8FF10BD0000C401002010B50F4A002313600E4A13600E4B18600E48016054
:402540000E49012008600E490860000290600E490C4808600D4914300860FF381538506000F0BCF800F0CAF9002010BDF0010020D80100200402002008020020F4010020CE
:40258000E4010020F4060020E8010020FC010020014610B50020002910D0094B1A689C685118A14209D25868196080188A0704D08A07920F891A091D196010BD002010BD3C
:4025C000D8010020F8B50024164E671E321F3D463168136806E01422624310328A58521C1BD0641C9C42F6D36A1C14D02C461422544322460C3288500C214843FFF7C8FF3F
:402600003168002808510AD031680020103408517068401C70602846F8BD2546E4E73846F8BD0000E8010020F3B50026F64381B000281BDB1E490968884217D8029900290C
:4026400014D01B4F142204463F1D54432546396810354859401C09D0FEF7DEFD38682F1F4159C359994203DBFEF7D2FD3046FEBD214608310091465801590C207043081828
:402680000C220299FEF70DFF0948761C001D0068C159B14200D100260549009A091D865008684159491C4151FEF7B2FD0020FEBDE4010020002803DB07490968884202D90F
:4026C0000020C043704704491422091D096850431030085870470000E4010020F0B500200D4A451E0346171F50600FE014260146714314680E1DA3510C46166808343351FA
:402700001668083435511468401C635039688842ECD30020F0BD0000E8010020F3B50026F64381B0002841DB2349096888423DD8029900293AD0204F142204463F1D5443E6
:402740002546396810354859401C2FD0FEF764FD3868415900292BD0211D009146580C21005971430F46C1190C220298FEF799FE11480021001D0068761C00590C34C0192B
:402780000160416081600C48001D00680159B14200D100260849009A091D865008684159491E4151FEF734FD0020FEBD3046FEBDFEF72EFDFAE70000E4010020FEB50446FA
:4027C0000D4600201E49089E0860471E009001900290002C11D0486885420ED2002A0CD0002E0AD0642E08D808460C3001681C2068430C18207A002801D03846FEBD01200A
:40280000226020721846FFF7DDFE6060401C13D06681A6810A4827610C3067610179A94200D205710021684601810A462846029B00F040F82846FEBD00202072DDE700004A
:40284000F001002038B50124009400F039F838BDFEB50027164EFF433D4600240EE01C20316860430818017A002906D04068FFF721FF002801D0254603E0641C3079A04254
:40288000EDDA681C12D01C2130684D434419FEF7C3FC69466068FFF741FF0546FEF7B8FC002DD9D1216868468847D5E7FEBD0000FC01002038B50024009400F001F838BDE0
:4028C0001FB500220C49541E0A60002811DB496888420ED808491C220C31096850430818406801A9FFF7A0FE401C02D0002004B010BD2046FBE70000F0010020F0B5002178
:40290000114A4D1E174611710C3F0B46BD6016E008461C2460431668041D355114680646235014680836A3551468361DA353044616680A34335318301468491C2550786831
:402940008142E5D30020F0BDFC01002038B500210091002811DB0F49097888420DDA0D4D04010C3529680859002807D0201D0818694600F071F9002801D0002038BDFEF7BB
:402980004BFC28680F34015D491E0155FEF740FC009838BD0C020020F7B582B0002502986E1E06602E48D21C024017462D4A2C4610460C380178106805E02301C358002BA1
:4029C0000FD0641CE4B28C42F7D3711C28D03401211D40180191039900F02CF900281FD101E02646F1E71F48016820460C300F521C480399026820460E3011541948039937
:402A0000026820460F3011540398784300F0A0F8144900280968085102D00024009011E001251AE00F48016801980818009900F02EF9002801D0012502E00098C019009033
:402A4000641CE4B203988442ECD3002D05D10298066004480179491C0171284605B0F0BDFCFF000018020020F8B50D4600216A468C461180002839DB23490978884235DA45
:402A8000214B04010C3319680A59002A2ED020460C300B5A801C0E5C184670438018954224D3854222D2002006E007465F43BF18AF4206D0401CC0B2B042F6D36046002831
:402AC00014D0114E271DC8190C366A46294600F008F900280AD168460088012808D030682946C01900F0D3F8002803D00120F8BD0020F8BDFEF790FB30680F34015D491C83
:402B00000155FEF785FBF3E70C020020F8B50F46002400F033F8002817D10C4900220B460C334A600EE021011D680E466A501D680C36AA53B61C1D680F31AA551D68641CBE
:402B40006A54E4B2BC42EED31A71F8BD0C020020014610B5002000290CD0C91C064B8A08596892005C888A18A24202D898685A60401810BD002010BD0C020020F8B5064651
:402B800000200F4D009029700C0121466846FEF715FE00280CD129460C3100980860301B001F84B221466846FEF708FE002801D0FF20F8BD6C800098A8600020F8BD0000B7
:402BC0000C020020F8B5002827DB19490978884223DA174C05010C342168485900281CD028460C30085A009028460E300E5C401C0E5420682F1DC01900F064F800280CD1D1
:402C00002068002445590EE0094829460C300068C01900F03CF8002801D00120F8BD00982D18641CE4B2B442EED30020F8BD00000C02002030B50D4604000BD0A800FFF7CA
:402C400087FF6060002805D000202570C0436080002030BD012030BD70B50D46040005D0002D03D00220205E002801DA012070BDFEF7D2FA0221615E606889004058286008
:402C80006088401E6080FEF7C3FA002070BD70B50D46040007D0002D05D002212078615E401E814201DB012070BDFEF7B5FA6088401C00B26080616880000D50FEF7A8FA1E
:402CC000002070BD10B5040009D0227800216068FEF7F0FB0020C0436080002010BD012010BDF0B500231D46002802D00224045F0AE00120F0BD46689F00F6598E4201D100
:402D0000012503E05B1CDBB29C42F4DA15700020F0BD00000148007870470000200200207CB505460024FEF7D1FBA8796946087000A8062229460130FEF7B3FB0021684643
:402D400004F05AFB0C2804D0072804D01F2804D004E0022402E0042400E0272420467CBD10B502280BD0032802D0042809D102E000F0CEF805E000F09DF9FF2801D100F04D
:402D8000ADF9FFF73BFAFFF747FA10BD10B500F0D5F9FFF733FAFFF73FFA10BD10B503240CF0B6F9002810D10CF05AF900280CD105F078F8002808D100F09CFB002804D1BE
:402DC00004F074FD002800D10024204610BD70B50025044600280ED0A07901280BD8FEF775FBA0790028204602D002F093FF03E002F048FF00E00125284670BD10B5FFF785
:402E0000FDF9012801D1FFF7FFF910BD38B504460120002C20D0617801291DD800290BD0FF25E535FEF752FB2846FFF7ADF8C0B22070072803D00EE0FF25CD35F2E70020DC
:402E4000694608706846FFF7FBF969460878012801D108202070002038BD70B504460120002C1FD06178012902D92278092A19D8002905D0FF25E5352078092803D004E099
:402E8000FF25CD35F8E707202070FEF71FFB2078082808D00020FFF715FA21782846FFF779F8002070BD0120FFF70CFA0721F5E770B50D46040001D0002000E005480028E4
:402EC00002D0012102F0D6F82946204602F038FC70BD00009807002038B5054600200446009022466946284600F09CFF0098002801D00CF0EFF8A878214602F0E0F9A8780F
:402F0000214602F0CFF9641CE4B2052CE9D338BDF8B5624CFFF772F9012846D160480078002842D002F090FB0028FAD003F06EFF0028F6D05B4E7078C00703D000F047FC07
:402F40000128EED0B07E0028E7D170780025002878D0000707D5AC20FFF716F8070B00F061F9384321D14F484178684603F026FE4D4F06462079B9784018C1B2B14271D895
:402F800002F062FB002810D0464C203402F089F96846008802F0B5F902F05EFA43490988884203D10120FFF767F974E04049012008703C48807B00282BD04034608A002870
:402FC00027D0E07E002824D1A1200001FEF7DCFF208A4000B04218D97878002815D1A12424012046FEF7D0FF0221884301462046FEF7D0FFFF24F1342046FEF7C5FF032104
:40300000090201432046FEF7C5FF3878002800D03D7002F0B9F90120FFF728F9244C08E0FDF7DCFDFFF7EAF806282CD02078002829D0FFF7E3F8062825D020780128EFD09D
:4030400021E0FFE702F000FB002824D0142002F058F9174C0120207002F096F90020FFF705F909E015E0FDF7B9FDFFF7C7F8062809D02078002806D0FFF7C0F8062802D0B8
:4030800020780128EFD0207801288BD1FFF782F825700020F8BDFF20F8BD000064070020B80100207807002026020020380200202102002010B50848FF244078002809D1EB
:4030C00002F0C2FA012805D1FEF786FF0720FFF7D3F80024204610BD7807002038B5FFF78DF8012801D0002038BD02F0ADFA00280AD0114C6078C00703D000F068FB01286E
:4031000002D0A07E002801D0FF2038BD617800290FD0684603F052FD022806D96846008802F0EFF8012002F035F90320FFF7A4F8D9E70020F7E700007807002038B5FFF773
:403140005DF8042819D0052817D006281AD0032842D007280AD100206946087002460120FEF74CFFFFF74AF80128FBD138BDFDF735FDFFF743F80128F8D0FFF73FF80128C2
:40318000F5D138BD02F024F905E0FDF727FDFFF735F8012803D0FFF731F80128F5D1A12424012046FEF7F0FE01220E4983079B0F0A70022BE5D149880029E2D01043014697
:4031C0002046FEF7E7FE2046FEF7DEFE410849002046FEF7DFFE38BD02F0FEF80120FFF74BF838BD26020020F8B50646002402F0A3FE0546304602F0B7FE00210346012671
:4032000032468A40174610462F401840002F03D0002801D1224394B2491CC9B20529EFD32046F8BD70B500252C460A4E03E0002C01D0002000E030460079002803D02046FC
:40324000FFF7D2FF0543641C2406240EEFD0284670BD0000980700201CB50020694648706846FFF7D3FD01AA69460A20FEF7C6FE6946042008561CBD10B50C4601F076F9C0
:40328000002809D00179002906D0C1788078224602F004FB002010BD022010BD0148007870470000640700204030C07E002800D00120704700B500F001F800BD882148431E
:4032C000064940186030417F491CC9B24177052901D300214177C8B2704700007807002013B501F043F904000BD001F096FC002807D0214601AA0A310620FEF77FFE002039
:403300001CBD02201CBD000010B50C4601F02EF900280AD001F081FC002806D0224604490A20FEF76BFE002010BD022010BD00004D070020F3B581B0074601460026029862
:4033400002F0F2FD0446002F01D0002500E0154D002D21D0284601F03FF9032C04D13946029802F00BFE06463846029901F09AFF032C06D0002C10D00121384601F01AFA49
:4033800003E03146384602F0ADFF284601F058FE0221284601F06EFEFEBD3846029901F081FFFEBD9807002070B50446002503F09BFB002801D00C2070BD2078611C02F0BF
:4033C00067FBFF2802D01F25284670BD02F0B4FBFF2804D02178621C01F0D6FEF4E70725F2E710B503F080FB002801D00C2010BD02F026FB002010BD70B50D460446102123
:403400000BF0A8FD1021601806460BF0A3FD334610221946204603F093FB102130460BF099FD02202870204604F098F970BD70B504464078217802028006850FE0781143D7
:40344000A67809050002090D0643084601F08EF8002812D0022D10D0032D0ED0002E08D00179092909D0002907D0214600F0A1F870BD0089002104F0A6F820460BF02AFE66
:4034800070BD0020704770B50446002503F02CFB002801D00C2070BD2078611C02F0F8FAFF2802D002F03AFA00E01F25284670BD10B504F0FBF900F0F6F8002010BD10B5F4
:4034C000044600786178E2780843A17811430843217908436179084305D003F0F7FA002803D00C2010BD122010BD204602F012FC002010BD10B5044803F018FC02F018FAAF
:4035000000F004F8002010BD34070020F8B5114D00266E706E736E716E76AE76EE766E75AE70EE70AE712F46EE730120B03778723F207871FF20B87100F00AFA00242046C8
:4035400001F032FB641C2406240EF8D03E72FE71AE73F8BD7807002070B505460E46084602F0EAFC0446304602F0FEFC0121A9400A46224001400A4301D0012070BD0020D5
:4035800070BD10B50446084602F0EEFC0121A140014201D0012010BD002010BD10B5FEF72DFE032804D101F017FF0120FEF764FE10BD70B5044600790D4609281CD0002802
:4035C0001AD020464030817E491C8176204601F037FDA078FFF76EFE064602462946204600F00CF8002806D1A0783146FFF760FC28460BF06FFD70BD0846FAE7F7B5054646
:4036000048780C468006870FC8788978000282B0014368468180284601F00AFB060007D021462846049A00F091FB304605B0F0BD384600F039FC0746034601AA2946204633
:4036400000F0CAFA68468088231DC0B20090A878FF22049902F02EF8684680883B46C2B2A878049902F0D2FBDFE770B5002500242846FFF7B9FD060010D03046E040C007F0
:40368000C00F07D02146284601F0FFFD21462846FFF750FE641CE4B2052CEED36D1C2D062D0EE4D070BD10B502F042F9FFF72EFF0BF078FD002010BDF8B5002400F081F8FD
:4036C0000123012800D10124104F00203E4620360425082203E0002801D0002100E031460979002907D001290BD002290BD0114681402143CCB2401C0006000EEBD07C70E9
:40370000F8BD1C43F7E72C43F5E700007807002010B5FFF7D1FF10BD10B50B4681791943817103D08078114602F034FB10BD10B582798A43827102D1807802F043FB10BD9F
:4037400070B5FF25D53502242846FEF71DFC0C4A9178002901D0022906D1137852789A18282A01D9032402E0032900D101244105490DE00201432846FEF70CFC70BD000041
:403780002202002010B500F022F8002807D0012805D0032801D0042801D0002010BD012010BD014610B50020C90701D000F009F810BD014610B50020C90701D000F001F8E4
:4037C00010BD10B52020FEF7DFFB000A10BD10B51820FEF7D9FB410501D5042010BD4007800F10BD38B5044640060CD5684601F003FE0220FFF78CFF072002F0B5F96846C5
:40380000007801F03FF9200613D5FFF7E0FF01280FD1684601F0F0FD6846007800F09AFA072002F0A1F9012001F072FC0220FFF76FFF38BD10B5034A0178117002F0A3F97D
:40384000002010BD2202002010B50446FFF7B9FF002801D00C2010BDA27B01211848002A827801D00A4301E05208520082706279012A0FD0C17849084900C170207901285D
:403880000CD06188208802F09BFF2080207904280BD00DE0C2780A43C270EFE7E01D02F021FA0848808C208002E0E01D02F01AFA054920798870204602F074F9002010BDD7
:4038C00078070020240700202202002038B50478FFF777FF844201D10C2038BD002C18D0072069460870FFF74DFF012807D10121684600F08DF8012801D0092038BD68465C
:40390000007802F031F9FFF71BFF02F078F9012010E0FFF737FF012806D1684601F06CFD6846007800F04AFA072002F01DF902F05DF90220FFF7ECFE002038BD10B5034A41
:403940000178517002F0FEF9002010BD2202002038B568460BF054FB002801D01F2038BD01210098C90201804180002505714571857107214173857302F014F9009C202222
:4039800000212046FDF796FD25702A460021601CFDF790FD204602F0F6F8204602F0D2F900980BF097FB042200210248FDF782FD002038BD220200200346084800B58342D8
:4039C00009D8184600F0D2FD002804D00089984201D1012000BD002000BD0000FF0E0000074A9179491C8906890E917138220A4092014907090E1143084302490840704761
:403A000078070020FF0E0000C006C00E70470000F8B507460E4600240D4803E0002C01D0002500E005462979002905D0641C2406240EF3D00020F8BD204601F0B5F82E71E1
:403A40002046FFF7CDFF28813C700120F8BD00009807002010B503F0A7F80222002100F003F801F00DFF10BD10B5094B40074907000F090F185A595A40185043C0086421AF
:403A8000FDF76EFC002800D1012080B210BD000088170100F7B53D20405C88B016460C46002829D030786946087200252046FFF7FBFB012800D00125204603A938300191D0
:403AC000009023460327A17E34332A46206A03F047F902A8089900900B46019120463A4603A9243003F00EF802466846007A3070204601F045F810460BB0F0BDFFB587B006
:403B00000C4605461078694608723D20005D1746002826D000262046FFF7C6FB012800D00126204603A93830019100902346A17E34333246206A03F013F902A80090291D93
:403B4000019120462B1D03A924300A9A02F0DAFF02006846007A388002D1204601F010F810460BB0F0BDF7B53C20405C88B015460C4600280CD0287869460872002806D070
:403B800000262046FFF790FB012803D003E01F200BB0F0BD0126204603A938300191009023460327E17E34333246E06903F0D8F802A8089900900B46019120463A4603A982
:403BC000243002F0D1FF02466846007A2870204600F0E0FF1046DBE7FFB505463C20405C87B016460C46002810D0084601F020F801280BD0308869460883002809D0002701
:403C00002046FFF751FB012805D005E000200BB0F0BD0220FBE70127204602A93830019100902346E17E34333A46E06903F098F806A80090291D019120462B1D02A924306C
:403C40000A9A02F091FF02466846008B30806846008BA870000AE870204600F09BFF1046D5E770B50D460446FFF71EFB01280AD0E87AA97A00020143A07801F0BFFC0128AC
:403C800008D0002070BD00222421204602F0E2FC242070BD28214C200155204600F09AFB282070BD002801D0002000E003484030C07F012800D000207047000098070020E4
:403CC0000146002049070ED50021084B03E0002901D0002200E01A461279022A04D0491C0906090EF3D0704701207047980700200146002049070ED50021084B03E0002936
:403D000001D0002200E01A461279022A04D0491C0906090EF3D07047012070479807002010B5044680346068002803D00BF0E6F90020606010BD40304170704740308170E3
:403D400070474030017070470171704792001018C166704770B53C2501F0F4F8040004D020460021433001F0E9FB2946204600F0C0FB002C02D0A07801F076F870BD000007
:403D800010B5002801D0002000E00348002802D0008903F05FFC10BD9807002010B5002801D0002000E00448002804D00179072901D100F041F810BD9807002010B501F0B0
:403DC000C1F8002802D0807801F04EF810BD00207047000070B50546008A00281ED010491122897A1140C90618D5294640314A8A098A521C4A4392B2D10800D101215408E3
:403E000001E0621A94B2A042FBD9FEF783FF012804D1298AA878224601F0E0FC70BD00002407002000230B60052A04D292001018C26E0A60C366704738B504460020009086
:403E4000A079002814D14020015D052901D00E290ED168460BF0E4F8002809D12046009902F0E0FB03481021C28A2046FFF754FC38BD00002407002010B50B46044601469B
:403E8000184602F0AFF8002802D020460BF02CF910BD13B5044601AA11460620FEF7AEF86846818861811CBD002800D10220704770470000F8B504462346401D543300901A
:403EC0009A1EA078911E01F0A6FA25464035A88A298A8000FDF744FA401E81B2688A884203D96982A07801F0E0FF20460021433001F024FB8020FEF747F8E88102F054FEB4
:403F0000E989891C8AB26179FFF7AEFD01F0B8FC02F04AFE2A8A6179FFF7A6FD074601F0A1FC688A00280BD0FF26F1363046FEF72BF80321090201433046FEF72BF802E020
:403F4000002001F0A0FFFF206130FEF71DF86E8A002E0BD070431049FDF762FA0004000C01D0401C80B20D49488002E00B4800214180288A704381B2A07801F0F1FE2837E7
:403F8000B9B2204602F020FCE98AA07801F040FEA07801F0AAF9F8BD71020000260200207FB504468034616805460E46183108226846FDF776FA31462031082202A8FDF79D
:403FC00070FA102168460AF0C5FF6068102108300AF0C0FF60682B46083024331022694602F0AEFD7FBD10B504460821FFF79FFB10212046FFF79BFB207905281FD0062880
:404000001DD008281AD12189002003F09BFA072020712046FFF748F9014620464030012913D00E21017000210176204600F028FF2046FFF775FE2046FFF7CCFE10BD208987
:404040000122002103F062FAE1E70521EAE70000FFB581B01F4604460821FFF768FB10212046FFF764FB2079082803D0092804D0042203E00422012501E00922002520465F
:4040800000F0C2FD264600204036307022712046FFF746FE0398002D02D0012808D00BE001280AD120890022029903F02FFA04E02189029803F046FA012700203076012FF7
:4040C00004D0204600F0DCFE05B0F0BD02983073204602F0EBFA054605480121C28A2046FFF71AFB002DEFD109202071ECE700002407002070B50C460546FFF7D5F80128F6
:4041000009D108212846FFF712FB0023012221462846FFF79DFF70BD10B5044600F074FD2046FFF7FDFD00214034217010BD70B505461A24FFF7B8F8012809D1082128468A
:40414000FFF7F5FA0023012221462846FFF780FF70BD0000F8B50446002000900E4668460AF05EFF002801D00D20F8BD8420005908212030009D00F0F4F9204604213830DF
:4041800000F0EFF9002E02D1204600F07BFD2946204602F0D7F90E480821C28A2046FFF7BBFA204600F0D3FE25464035002808D0204600F023F8002801D009202870002093
:4041C000F8BD08202870204600F03AFFF7E7000024070020014610B540310A460978082906D0092907D00A2901D100F091F810BD0B20107010BD00F001F810BD70B504464C
:40420000007925464035052805D0062803D008280FD00C2070BD03220621204602F01AFA0D480821C28A2046FFF776FA1120287010E006202873204602F038FA0646AA8AE8
:404240000A20424301212046FFF766FA002E01D109202071002070BD2407002038B504460020009068460AF0DBFE002801D00D2038BD2046009D00F08BF908202071204646
:4042800000F000FD2946204602F08EF900213D2001550F2040210855204600F0D1FE002038BD00B5024600F0AFFC10214032117000BD10B50446FEF7F7FF012809D04020F3
:4042C000005D112805D100231A4606212046FFF7BFFE10BD10B5FFF786FE10BD38B504460021684600910AF09BFE00280CD12046009902F0D0F905480821C28A2046FFF7AF
:404300000BFA0D204034207038BD00002407002038B504460021684600910AF081FE002801D00D2038BD2046009902F0A9F905480821C28A2046FFF7EFF90C204034207013
:40434000002038BD2407002000787047F8B50025002801D0002400E01A4C002C28D0204600F05BFC002823D0207903281CD005281CD026464036B18AA07801F0FFFCB0787B
:40438000012815D10021204601F049FE274680373868002802D00AF0B1FE3D600020B0702079072805D007E0042000E006202071F8BD2046FFF70EFD0221204600F05AFEBF
:4043C000F8BD00009807002010B54C22115400F046F810BD10B50446FF21FFF7A8F909202071A07801F0FAFC10BD000038B5FF216A461180002801D0002400E0064C002CA1
:4044000008D011460620FDF7F9FD684601882046FFF73FFD38BD00009807002010B504468079002809D022214C200155FF212046FFF77DF9204600F012F810BD10B503794C
:4044400002464032002B03D01173092B02D003E0002100E02221117300F001F810BDFEB504460089002701902781207926464036002817D0012815D002280AD112E002AA78
:404480006946204601F09CFD002807D100980AF02BFE204601F0BCFD0028F0D02046FEF71BFDB776254680352868002802D00AF025FE2F606868002802D00AF01FFE6F6004
:4044C000317B002902D0019800F044F8A078002100F024FF2046FFF7BDFAA07801F078F8A07800F0C1FC0B20FFF712F900F000FCFEBD70B50E46054602F052FB044606701D
:404500002846FEF7D1FE014601204140204661700C3000F0FCFF002D10D02889608028464030C1782171002E10D169796171018AE180418A2181808A608107E01820FDF7A1
:4045400023FDC005C00F207100206080204602F0A2FF70BD0A4610B50146002003F092F810BD10B50AF0D2FA10BD000000B50146FFF74AFA002801D0002000E00348002810
:4045800002D002898A4200D0002000BD9807002038B5044680346068002806D168460AF04FFD002801D100986060606838BD000010B5014600F03CFB0128887802D0FEF78E
:4045C0007DFE10BD88214843024940186030007F10BD00007807002070B5054604464035A87F012811D1A1788820084A484380186030067F3046FEF7AFFF002805D102203C
:40460000A877A078314601F0A9F870BD7807002010B50E4CE079002816D0FFF726F80C48827FC17F808B00F06BFB01280CD10020E07100F0EAFE0446AC20FDF7A5FC010BD8
:4046400002D0204600F00EFA10BD0000280800207807002070477047490510B5490F0B00FDF746F8060704080C0C0F073E21FFF7ABFE10BD0821FFF7E1FE10BDFFF7EFFE78
:4046800010BDFFF7CBFE10BDF8B507460025002D01D0002600E0204E00F06CFE3046403044890021418100F08BFE304600F0B5FA01282BD1A00702D52846FFF747FEE00660
:4046C00002D52846FFF792FEA00601D5FEF7CDFF600601D500F0C8FA200602D5284600F01DF8600702D5284600F0FAF9380402D52846FFF753FB780402D52846FFF740FB0E
:40470000E00703D021463046FFF7A6FF6D1C2D062D0EBCD0F8BD000098070020F8B5002801D0002400E0204C002C39D025464035A878012834D1E98AA07801F069FA204692
:40474000FEF7B2FD01282BD002F02EFA2A8A6179FFF78AF9064601F085F82836B1B2204602F032F8E98AA07801F052FAFF206130FDF70AFC6E8A0D4F0146002E11D03046C1
:4047800048430B49FCF74CFE0004000C01D0401C80B27880288A704381B2A07801F0E0FAF8BD0020F5E7000098070020260200207102000070B50D46124A010001D0002406
:4047C00001E014462034002C1BD0204600F030FA01280AD18820484380186030007FFEF7BBFE002801D101F0EBFE20464030817E491B8176204600F023FC2089294602F084
:40480000E2FE70BD7807002070B503460088FFF7ADFE040013D000F000FA00280FD02079092819D02546997840352973204601F03DFF0646A878012803D0AA8A02E00220EA
:4048400070BDEA880A20424301212046FEF764FF002E01D109202071002070BD0EB5002217216B460292198100905A810120029B00990AF0B5FC0EBDF8B5184E0024F0792F
:40488000002820D10025AC20FDF77EFB000B21E0204600F06FFEFDF777FB07462A46214600F02EFA01280FD00D48012187838577C477F171002D01D0002000E02030002878
:4048C00001D000F0BDFBF8BDAC20FDF75DFB000B641CE4B20028DBD1F8BD0000280800207807002010B50088FFF740FE002809D0014640310C460978082905D00B2903D0BF
:404900000C2010BD022010BDFFF778FC002801D009202070002010BD70B503460088FFF725FE040008D0254640352878082805D00B2803D00C2070BD022070BD842000596B
:4049400010220830991CFCF7ACFD2046FFF728FB2878082804D02046FFF7DAFC002801D00A202870204600F06BFB002070BD000010B50C46002121700088FFF7F7FD030025
:404980000BD000F04AF9002807D009481121807A0840C00603D4112010BD022010BD022020701A8A1889002102F088FE002010BD24070020F8B50F46002100910088FFF7A1
:4049C000D5FD040012D000F028F900280ED0E079410641D4617E02264A07002A08DB8907402500291ADA2843E07135E00220F8BD02F0D6F80021017021894180A18981802C
:404A0000217E4170E189C1803E7005460178134802F0BAFB284602F0F5FD1DE0204600F00DF9012806D068460AF0FAFA002803D00720F8BD2A20F8BDE07900992843E0713D
:404A4000204601F05DFE607E0421304360760448C28A2046FEF760FE0020F8BD1D040000240700203EB500220F236C460292238100910190628169460EC900200AF0B0FB25
:404A80003EBD000070B5054600F05CFA040021D003202071254600264035EE76E6702046FFF708FA01F0A2F80920FEF731FEA07800F07CFD0121204600F0DCFA2E706E705B
:404AC000AE7000212046FFF714FD0449887B401C887370BD284601F081F970BD7807002010B5002801D0002400E00A4C002C0FD020464030417802290AD1002141702046A1
:404B0000FEF7D2FB002803D10221204600F0B2FA10BD00009807002070B503460D460088FFF724FD04000BD000F077F8002807D012481121807A0840C00603D4112070BDA0
:404B4000022070BD20464030418A008A491C41430804C10C5888884201D2122070BD20822079072802D12046FFF734F9022028702089002102F0CAFD002070BD2407002082
:404B8000016A491C016204D1817E491C4906490E81767047C169491CC16104D1C17E491C4906490EC176704770B500250646002801D0002400E0114C002C1CD088220021A4
:404BC0002046FCF777FCA67000202646207140363070204600F018F8204601F015FA084820820848B577807A1121084000D001202075012070BD002070BD00009807002012
:404C0000B80B000024070020002101628176C161C17620300177417770470079002805D0012803D0022801D001207047002070474030807F002800D0012070474030007818
:404C4000002807D0012805D0052803D00E2801D0012070470020704710B5807801F084F9002800D0012010BD10B500F0CEFB0446AC20FDF789F9010B02D02046FFF7F2FE3C
:404C800010BD000070B5054604464035A87F002823D1FF206075A0788821144A484380186030417F8823491CC9B24177A078584380186030052901D300214177A078882175
:404CC000484380186030467F0677A1783046FEF743FC002802D00120A87770BD0220A877A078314600F03AFD70BD0000780700200020401C0006000EFBD0002070470000A0
:404D0000F0B515468207920F85B0C004C00E02926A469080002D01D0002400E0514C002C29D0084600F026FC03906846808800280BD00298012845D0022843D003280CD0A2
:404D40003D20005D012872D086E00398FDF71CF901462046FFF79DF87EE00020029002A80AF03EF9002807D03D20005D012876D12046FFF705FF72E06846029E8388324635
:404D800000210398FDF776F80398FDF7FDF801462046FFF77EF8284600F0B9FA01AA21463046FEF777FE002806D030460AF088F93D204C21085528E0F5773146204601F0DD
:404DC00071FA4CE000200090278968460AF0F8F8002802D0002005B0F0BD6846009E8388321D00210398FDF745F80398FDF7CCF801462046FFF74DF8284600F088FA25468F
:404E00004035287E00280CD103E02046FFF7E2FA25E001AA21463046029BFEF76FFE002806D030460AF042F93D202873EDE710E00298FFF73DF8390A000101433770717071
:404E400068468088B070000AF0703046FFF706FD05E02046FFF794FE284600F058FA0120B9E700009807002010B5044A917B002901D0491E9173FFF797FE10BD7807002005
:404E8000F8B5074606464037B87F00283DD0B0788821009048431F4945186035287F0099FEF76FFB012831D0287F401CC4B2052C00D300240020B877FF276F772F77A877F9
:404EC00002460146009800F0C9FD717DFF2903D0304601F05AF8777501F072FB00252F462246694630460097FEF79CFF0099002902D03046FEF75DFB641CE4B2052C00D32A
:404F000000246D1CEDB2052DEAD3F8BD0320B877F8BD00007807002010B502460021084B03E0002901D0002000E018460479944204D0491C0906090EF3D0002010BD0000BD
:404F40009807002000B50120FFF7E6FF00BD10B5044601F025FE2189018080346168416061682831816002F007FB10BDF7B50646087982B00C46092807D0A078F077084602
:404F8000FFF756FE012806D010E030460AF0ACF8022005B0F0BDA1788820284A484380186030007FFEF7D8FA012810D0A078FEF779FE01280BD037780121304601F0ADFA84
:404FC00025462035062F36D00B2F0FD107E06846027C21463046FEF74FFF0D20D9E72046FEF762F9012801D1002028772046FFF7DFFA054604AA21463046FEF7B4FD01203A
:405000005F2108556946087C0090A07833463A46294600F04FFB69460A7CA0780323294600F0F4FEA0782946FDF742FF30460AF05BF80020ADE70120D7E7000078070020A1
:4050400010B502464032937F0021002B03D1927E002A00D00121064AD279002A00D000210279092A00D10121807800F0F9FE10BD2808002070B50C460646FEF715F9002812
:4050800014D1012C0ED935464035A87800280DD1687802280AD03079092807D03046FFF7DBFD0446204600F008FE70BD0124F9E770B50D4601280BD0082808D1A824114688
:4050C000B020FCF767FF29462046FCF763FF70BD2020FAE710B501460820FCF75BFF10BD10B50446FF20F130012C01D1FF20D530002200F000FF1020FCF746FF0349A043A7
:40510000088001461020FCF745FF10BD2A02002010B504461020FCF737FF0449A043088001461020FCF736FF10BD00002A02002010B50446012802D0082C07D102E0FF2031
:40514000D53001E0FF20F13000F0CAFE1020FCF71BFF04492043088001461020FCF71AFF10BD00002A02002010B504461020FCF70BFF04492043088001461020FCF70AFF59
:4051800010BD00002A020020F8B507460120B84085B214460E46012229467C2000F0ABFE32462946782000F0A6FE6078217800020143E078A5780002054360792679000214
:4051C00006430C2047430D2080013C182046FCF7E1FE241D29462046FCF7DCFE201D3146FCF7D8FEF8BD401880B270478B00034310B5D10191201943C000FCF7CBFE10BD62
:4052000070B505460C46407829780002014341200001FCF7BFFEE878A978000201430A48FCF7B8FE60782178000201438320C000FCF7B0FEE078A178000201430248083045
:40524000FCF7A8FE70BD00001404000070B50D46044681B201208002FCF79CFE210C0448FCF798FE81202946C000FCF793FE70BD0404000070B5054600242846FCF784FE29
:40528000641CA4B2102CF8D370BD10B50C460146B020FCF77FFEFF2021462D30FCF77AFE10BD704710B50C460146B020FCF772FE204600F04BFE0021FCF76CFE10BD70B5D4
:4052C0000C46054600F005F821462846FFF7DDFF70BD10B50C460146B020FCF75BFEFF2021462930FCF756FE10BD10B50146B020FCF750FEFF20002220211D3000F0FBFD0F
:4053000010BD10B50146C020FCF744FE10BD010210B54D310020FCF73DFE10BD10B504020029014608D0B020FCF734FE214675310020FCF72FFE10BDB020FCF72BFE5120D2
:4053400000214001FCF726FE00210348FCF722FE21467631ECE70000240A000010B554210020FCF717FE10BD10B553210020FCF711FE10BD10B5034908884880FFF7C8FEAA
:4053800010BD00002A02002010B550210020FCF701FE10BD10B50E2400280CD0C420FCF7F3FD20430146C420FCF7F4FD51210020FCF7F0FD10BDC420FCF7E6FDA043F1E7D7
:4053C00010B502484088FFF7CFFE10BD2A02002010B5FCF7FDFE10BD10B552210020FCF7D9FD10BD884201D8081A03E00022D243101A401880B2704710B504461820FCF708
:40540000C3FD8004400F207010BD10B5B020FCF7BBFDC0B210BDF8B50E4601461C461546B020FCF7B7FDFF20E930FCF7ADFD0746FF200130FCF7A8FD3080FF200930FCF77C
:40544000A3FD2880FF200530FCF79EFD208079070698490F0170F8BD10B5C820FCF794FD10BD10B50C46002812D05820FCF78CFD2070000A60705C20FCF786FDA070000A3D
:40548000E0706020FCF780FD2071000A607110BDFF20C130FCF778FD2070000A6070FF20C530FCF771FDA070000AE070FF20C930E8E7000000B5024A00F004F800BD000021
:4054C000FF7F000000B51346FFF78CFF984201D8022800D2002000BD10B50146B020FCF759FD0248FCF750FD10BD0000080A000010B52420FCF748FD10BD10B50146B0209B
:40550000FCF748FDFF202130FCF73EFD10BD70B504466820FCF738FD06466C20FCF734FD05467020FCF730FD2670310A6170A570290AE1702071000A607170BD10B50446CF
:40554000012905D01820FCF71FFDC00B207010BD4820FCF719FD8007C00FF7E710B50146B020FCF717FD0248FCF70EFD10BD0000280A00000120C0027047000010B5014648
:40558000B020FCF707FD0248FCF7FEFC10BD00000C0A000010B50C460146B020FCF7FAFC0321A0014902401810BD00008821074B414310B5C918FF2260314A770A77002283
:4055C0008A77114600F04AFA10BD00007807002088225043074A10B58018FF21603041770177002181770448418EFF201D3000F077FC10BD780700202407002010B50C4617
:405600000146B020FCF7C6FCFF202530FCF7BCFC0222214600F002F810BD000010B50023884201D8081A03E00024E443201A4018044980B2884201D8824200D9012318468F
:4056400010BD0000FF7F000010B5C420FCF79CFC0006C00F10BD000010B50348FCF794FCC007C00F10BD00002C0A0000F8B503465078167800020643D078957800020543A7
:4056800050791779000288240743002900D098241946B020FCF77EFC31462046FCF77AFC201D2946FCF776FC204608303946FCF771FCF8BDFFB581B014460D4606460A9F38
:4056C000FFF768FF3B460021049AFCF743FC02484019845505B0F0BD2E02002070B506460D4611242520A40108214001FCF752FC2B46324600212046FCF72CFC70BD70B542
:40570000212405466401FFF72FFE10232A4600212046FCF71FFC70BD10B5044640782178000201438F20C000FCF734FCE078A178000201430148FCF72DFC10BD7C0400004B
:4057400010B50C460146B020FCF724FC802021460143FF202930FCF71DFC10BD70B50D460146B020FCF716FCFF241D342046FCF70BFC01090901FF2029430130014320466A
:40578000FCF708FC70BDF8B500242646012807D0032802D0052808D105E002240A2604E004240C2601E004240D26492701463F013846FCF7EFFB25204001FCF7E5FBC5B2AE
:4057C00028462042F7D0252031464001FCF7E2FB00213846FCF7DEFB2846F8BD70B50D46044601461646B020FCF7D4FB512029464001FCF7CFFB31460648FCF7CBFB032140
:4058000089030820FFF794FC210275310020FCF7C1FB70BD240A000070B50D4604460146B020FCF7B7FBFF2029461930FCF7B2FB21024B310020FCF7ADFB70BD70B5491E33
:405840008CB205460146B020FCF7A4FBFF2021461930FCF79FFB29024C310020FCF79AFB70BD0000054910B5884200D908460146FF206130FCF78EFB10BD0000FF0F0000CB
:40588000054910B5884200D908460146FF206530FCF780FB10BD0000FF0F000070B588251446002900D098250146B020FCF772FB2846FCF769FB2070000A6070281DFCF7E0
:4058C00063FBA070000AE07028460830FCF75CFB2071000A607170BD10B51446024611200B4680010021FCF721FB012C01D1FFF735FD10BD10B504460920C001FCF744FB9E
:405900002070000A60700448FCF73EFBA070000AE070FFF723FD10BD840400000121814010B589B200227C2000F0E5FA10BD000070B5FF210120FFF7D3FBFF210820FFF70B
:40594000CFFB3020FFF7E4FB80210020FCF722FB002211460320FCF751FB374DFF20A98DD530FCF717FB0024FF26F1362146B020FCF710FB298F3046FCF70CFB2046FFF780
:4059800027FE641C2406240EF0D0FF20A98FF930FCF700FB28481030044600F073F9204600F0B8F900F04CF8234CB82040346188FCF7F0FAA188BC20FCF7ECFAE188C4207B
:4059C000FCF7E8FAFF20698EE130FCF7E3FAA12000210001FCF7DEFA3920FFF7C5FBFFF7C3FC93200721C000FCF7D4FAFFF7B6FCE020FFF73FFCE820FFF73CFCF020FFF7F8
:405A000039FC0020FEF726F8618A0C48FCF7C2FA0A482821001DFCF7BDFAFF210131AC20FCF7B8FA832000218000FCF7B3FA5B210020FCF7AFFA70BD24070020140A000039
:405A400010B500217C20FCF7A5FA00217820FCF7A1FA74210020FCF79DFA10BD70B50D4601461446B020FCF795FAFF261D363046FCF78AFA01090901FF202943013081435B
:405A8000002C01D1102041403046FCF783FA70BDF3B589B0FF2001900D208001009048780D7800020543C8788E780002064348790979000201437C200791FCF765FA069090
:405AC0007820FCF761FA059074210020FCF762FA18480024049026E00120A04087B20098FCF752FA03900098FCF74EFA02900098FCF74AFA039A29465140029A72401143F2
:405B0000079A424011430BD10698074208D00598E040C1070998C90F814201D1019405E0641C0498E4B20078A042D5D801980BB0F0BD00006407002070B5FF257C20FCF729
:405B400023FA0849002401230A7805E01946A140014205D0641CE4B2A242F7D8284670BD2546FBE76407002010B504461820FCF70BFA0721C90288436107890C01431820FE
:405B8000FCF708FA10BD10B50446E020FFF772FB20782246401CC3B20021E020FCF786F910BD000010B5044641790079042817D040000843A17B032901D8C9000843617B8F
:405BC0004A010243A079010207201143C00201431820FCF7DFF921881C20FCF7DBF910BD08460149E5E700000204000010B50120FFF78EFA41210020FCF7CCF910BD10B562
:405C00000120FFF7B1FA40210020FCF7C3F910BD10B50C460146B020FCF7BCF9FF2021460D30FCF7B7F910BD70B50C4601461E461546B020FCF7AEF9E92021468000FCF7D2
:405C4000A9F975202946C000FCF7A4F9EB2031468000FCF79FF96C433B20A1B20001FCF799F970BD70B50C4601461546B020FCF791F921468420FCF78DF929468020FCF7A5
:405C800089F970BD10B504464078217800020143FF20C130FCF77EF9E078A17800020143FF20C530FCF776F96079217900020143FF20C930FCF76EF910BD70B5A1240546BB
:405CC00024012046FCF760F9012D07D041084900814202D02046FCF75DF970BD014601221143F5E710B5044640782178000201436820FCF74FF9E078A178000201436C207F
:405D0000FCF748F960792179000201437020FCF741F910BD10B5044640782178000201435820FCF737F9E078A178000201435C20FCF730F960792179000201436020FCF730
:405D400029F910BD10B50446E820FFF793FA20782246401CC3B20021E820FCF7A7F810BD10B50C460146B020FCF714F921460248FCF710F910BD00001C0A000010B50C465C
:405D80000146B020FCF706F9FF2021460530FCF701F910BD70B5054688000521FBF7E0FA84B22946B020FCF7F5F821460448FCF7F1F8290272310020FCF7ECF870BD0000A5
:405DC000040A000010B504460146B020FCF7E2F8210273310020FCF7DDF810BD10B504460146B020FCF7D6F8210270310020FCF7D1F810BD10B504460146B020FCF7CAF8F7
:405E0000210271310020FCF7C5F810BDF8B505461E4614460F46084600F098F800902802A1000843304304462946B020FCF7B2F821460098FCF7AEF80148C0194655F8BDDE
:405E40003302002010B50446B820FCF79DF88005800DA102014389B2B820FCF79BF810BD70B50D460146B020FCF794F8FF241D342046FCF789F840218843A9010143204623
:405E8000FCF788F870BD70B5A124054624012046FCF77AF80222002D01D0104300E0904301462046FCF776F870BD70B50D460146B020FCF76FF8FF2029460930FCF76AF8B5
:405EC000A12424012046FCF75FF80222002D01D0104300E0904301462046FCF75BF870BD70B50C460546FCF74FF8204301462846FCF750F870BDF8B516460D460746FCF7A8
:405F000043F8014600202C0003D104E06408401C80B2E207FAD08640A9430E43B1B23846FCF738F8F8BD0000024A1018405C8007800F70473302002010B50146B020FCF771
:405F400029F8FF202D30FCF71FF810BD8000FF30413070470246FF20052902D201484018805C70472E02002010B50146B020FCF711F8FF202930FCF707F810BD0A4600B5D5
:405F800001461046FFF7E6FF00BD38B50C46054600216846009109F043F8002804D1009928464C7000F09EFB38BD10B5044680780021FFF72DFE01212046FFF75BF810BD69
:405FC000436E002B0CD00B60014660318B781370826E4266CA788A700021816608467047FF20704710B50346446E6033002C04D0846E002C04D0FF2010BD41669A7001E0A6
:406000008166DA70002010BD0021416681667047406E002801D000207047FF20704770B50446C0790D46810610D5DF210840E07100F0B6FD0570218941804034218A8180E5
:40604000618AC180A18A018101F0F8F970BD000010B50446FEF7ECFD01280AD1A1788820054A484380186030007FFDF775FA012801D000F0A5FA10BD7807002070B50D4635
:406080000446FDF711F901281CD02079042801D0072816D1E879AE7900020643A0783146FFF7ACFA012813D03246691C204600F035FA02212046FDF73EFE01212046FEF715
:4060C000D9FF70BD01222421204600F0C3FA70BD28214C2001552046FEF77CF970BD70B50D460646FDF7BDFD002847D120213046FDF71DFB3446687840346073E878202233
:406100000002E081A9780843E0816879010228790843218A814203D0F1791143F1712082E8790102A8790843618A814203D0F1791143F1716082687A0102287A0843A18A0C
:40614000E180814203D0F1791143F171A082A08A218A8000FBF704F9401E618A80B2814200D9608201213046FDF7E8FDE87AA97A000201430022304600F0DCFA70BD0000E2
:40618000F8B50C460546FDF78FF8012849D0294EB07AC00709D02846403000900078002805D0102805D01F212EE01A212CE0002700E001272846FEF7EBF9002823D02E460D
:4061C00080360822611C7068FBF76BF97068617A20300172A17A417270682146183008220B31FBF75EF921462846042213313430FBF757F939462846FDF7ACFF002810D120
:40620000002F0FD012E007210322284600F022FAF28A08212846FDF77FFA11212846FDF790FDF8BD06212846FDF78EFD009801210176F8BD2407002010B5FDF7CBFF10BDAC
:4062400038B504460020009020790D46042801D007281BD12046FDF727F8012817D0684608F0DEFE002811D10C486A78807A00991040112210402075607E082210436076BC
:40628000204600F079F92046FDF7A1FD38BD08222421204600F0DEF938BD0000240700207047000070B506460D460846FEF74CF804463046FEF7B1FC00280CD0142C04D3CE
:4062C0002946304600F0C7F805E00549A0000A58294630469047284608F0F2FE70BD00009817010070B50D460021002801D0002400E00C4C002C14D020464030C177807FDB
:40630000032802D12046FEF7BBFD2046FFF7A0FE142D04D20449A800095820468847FEF7E7FC70BD98070020E817010010B5014640310C4609780E2903D1FDF78FFF0120EE
:40634000207610BD10B54021095C0F2901D1FDF7A8FF10BD4021095C0F2902D1002120304177704738B5044600220E4800920D46807A11210840C0060ED52046FEF75EFCA6
:40638000012809D0684608F04BFE002803D12046009900F053F938BD2946204600F05BF838BD00002407002010B51021FDF7BFF910BD10B54978FDF79DFE10BD10B5FDF75E
:4063C00078FF10BD012120304177704710B54021095C0C2901D1FDF781FF10BD10B54021095C0D2901D1FDF775FF10BD70B5044600790D46052803D0062801D0082802D1A0
:406400002046FDF789FE68784C21085509212046FDF79AFC2046FFF7C8FD2046FCF744FF0128A07805D0FFF7D9FC2046FEF708FE70BDFFF7DFFCF8E710B50446FF21FDF7B8
:4064400076F916214C200155A078FFF7C7FC2046FEF7F6FD10BD70B50C460546FEF7E8FB002802D02078687570BD21782846FFF78CFD70BD70B5054648780C46032802D15F
:406480002846FDF754FE6078122803D110212846FDF74DF970BD704738B5044600200D46009004212046FDF742F968782076E8780002A081A9780843A08168790002E081C7
:4064C00029790843E081607E04210843607680070CD4684608F0A4FD00281CD12046009900F00EF9607E022108436076E079410611D5BF210840E07100F052FB0021009062
:40650000017021894180A1898180217E4170E189C18001F077F838BD7047704770B50446C07815460A4600280AD00020E070C1B2A078FFF79BF8A0782946FFF76DF970BDAE
:406540000120F3E770B50546042008700C468420415908222031601CFAF7A3FF29462046042238310930FAF79CFF0D2229462046FEF7FCFC002070BD70B5054609200C46A8
:40658000087008220021601CFAF794FF287D607004480922C07AA07029462046FEF7E6FC002070BD240700200B4610B501460B20187001221846FEF7D9FC002010BD000056
:4065C000FEB50024164F03E0002C01D0002500E03D462846FFF71CFD00281BD15F20405D002817D16A4601A92846FFF7E9FC002810D1019869460A7806782946FEF7B6FC30
:40660000022E07D1A8780121FFF72AFC09212846FDF79AFB641C2406240ED5D0FEBD00009807002010B50B46122119708178D977014601221846FEF799FC10BD10B50B4688
:40664000132119708178D977014601221846FEF78DFC10BD38B50546002000900C46684608F0DEFC002801D0072038BD00980D210170447002222946FEF778FC002038BD36
:406680000B4610B501460520187001221846FEF76DFC002010BD0B4610B501460620187001221846FEF762FC002010BD38B5054600200090684608F0B3FC002801D01F20C3
:4066C00038BD009C022020704C20405D6070A878E0772846FFF769FC022229462046FEF745FC38BD10B50B46072119708178D977014602221846FEF739FC002010BD00002A
:4067000010B50B460A49044608880C221A704A795A709870000AD870C8881871000A5871062221461846FEF721FC002010BD000024070020F8B50446403417460E4605462D
:40674000E289617B8078FFF78DFA002F0DD100F02BFAE2896979FDF787F9FFF791F8608A002800D00120FFF78EFBE388A08A984200D90346628A218AA878FFF755FAA08AC2
:40678000218AC000FAF7ECFD81B2ED208000FBF701FCE089E188C0080A30081881B21920C001814200D90146A878FFF7E7FAA8783146FFF743F801212846FEF75BFCF8BD91
:4067C00000B500F01FF800BD10B50A4604460B491046FAF7C5FD4034C01C218A80B2814200D208464900081A81B20548E182C089002802D0884200D2E08210BD7102000085
:406800006407002040184008704770B505460C46000702D5A0B2FDF737FFE80702D0200EFCF7E0FF70BD70B5054650C8FCF786FCFBF72AFA2889C01F0300FAF759FF0C076A
:40684000130B171A1D0B0B200B100C0BA0B23146FFF7DBFF70BD204600F002FC70BDFDF7D7FE70BD2046FCF7E2FD70BDFCF7FDFE70BDFDF7EFFE70BDFDF7EDFE70BDE0B2DB
:40688000FDF7FAFF70BD0000F3B5002483B0064627460094019408200294FBF775FB05460640400713D55020FBF76EFBC0B20090700707D5009CA00803D1FBF74BFA012865
:4068C00000D10127002204200099FEF7F1FB28074ED5A820FBF758FB0146644842890A434281002208200091FEF7E2FB300739D50098044340062CD5FF200930FBF744FB11
:40690000FF201D30FBF740FB8006C00F0190FF200930FBF739FB00281BD00198002818D1534801214170FF20F130FBF72DFB0321090288430146FF20F130FBF72BFBA1207B
:406940000001FBF721FB02210143A1200001FBF721FB00981021884303D1FBF7FBF9012800D101270098C00602D50220FBF794FCA8070CD53820FBF707FBC1B2B00702D5AB
:4069800008040443012700220220FEF791FBE8071DD02020FBF7F8FAC0B20090F0070BD000980221000604430098884303D1FBF7D1F9012800D101270098800702D502208E
:4069C000FBF76AFC002201200099FEF771FBE80605D50120FBF750FC1020FEF77BFBA80628D5FEF739FD234908800120FBF744FC214900200870FF200930FBF7C5FA009088
:406A0000FF201D30FBF7C0FA80060099C00F00290DD000280BD116494870A1200001FBF7B3FA02210143A1200001FBF7B3FA2020FEF750FB680602D54020FEF74BFB07207F
:406A4000694608810020009601944881002F07D069460EC90498002804D0002008F09CFB05B0F0BD002008F0BBFBF9E7D8070020260200203802002021020020F0B587B027
:406A8000054605A81E461746019100900C9C04AB06AA02A903A800F07EF92846FEF72FFE21463046FEF71AFE6846017A0398FEF7CDFB05A904A8FEF7A3FB6846027E2146BA
:406AC0003846FEF793FB07B0F0BD000070B50548C4782046FCF765FE05462046FDF7F0F8284370BD7807002070B5054884782046FCF75FFE05462046FDF7FAF8284370BDB0
:406B000078070020F8B5069E1F463478231FDDB23B460095FFF7B2FF3819001FFEF7FCFD0520FEF730FE0446012229460798FEF7D3FE3570E00701D00020F8BD1F20F8BDB9
:406B400070B51C4615460E46FEF7D9FD29463046FEF7C4FD0320FEF716FE012229462046FEF7BAFE1F2070BDF8B5069D079E2C780094FFF783FF0120FEF705FE074600220F
:406B800021463046FEF7A8FE3019FEF7B3FE241D2C70F80701D00020F8BD1F20F8BD0000004870473408002008B56A4600210B20FBF724FA6846007808BD0000F3B585B00C
:406BC0000746564CFEF748FC21460290FEF70BFB38800698C0070DD0FEF78AFC054601460298FEF767FCA04201D204463D800020FFF728F94A48807B00287DD0002508203E
:406C00000699A84008427DD0002D01D0002601E0434E20362846FEF770FC0190414800903046FCF741FB002819D1FF200930FBF7ABF90390002812D0FF200130FBF7A4F9B0
:406C400003994000491C484381B236480091814200D20090009A01990298FEF733FC009A01990298FEF72EFCA04202D20446019838802846FEF782FC019030464030817860
:406C8000012901D0808A00E0C08801990005020C0298FEF717FCA04202D2044601983880B079002813D02846FEF716FC01901E480521C08AC000FAF753FB82B20199029890
:406CC000FEF700FCA04202D2044601983880308A002817D03079072814D12846FEF7BCFC00280FD02846FEF739FC064601460B4A0298FEF7E7FB01E00CE003E0A04201D254
:406D000004463E806D1C2D062D0E00D177E70120FFF798F8204607B0F0BD0000FFFF000078070020FF7F00002407002010B50B4C094923460833A160002142189278002A8C
:406D400000D05A54491CC9B20429F6D3FF21A0689A314843A06010BD040302017807002070B5059C049D2070060A6670060CA670000EE0704806D101400E084320710422F8
:406D80001946601DFAF78DFB2046042229460930FAF787FB70BDF8B5079C0E46E178069D09020160A77839430902016067783943090201602778394301602079611D4006F7
:406DC000400E30702079C009107004221846FAF768FB2146042209312846FAF762FBF8BD10B5FEF739FB084A916848408108C3084409414063405940C30F59404008C90711
:406E00000843906010BD0000780700200348C078002801D00020704701207047B409002010B5012200F016F810BD000010B5054802780121002A017002D10120FAF7ECFDD9
:406E4000002010BD3C02002010B5002200F002F810BD0000F8B5204D0F4629781646012904D02978022901D01120F8BD0C2148431A494418E078A178884201D31220F8BDCF
:406E8000FAF7CAF962780C2361685A4351188CCF8CC1E178601C491CE1706178491CC9B20170A278914201D1002101706868401C68602878012803D0FAF7AAF90020F8BD9F
:406EC00002202870FAF7A4F9002E03D00020FAF7A3FDF3E70120FAE73C020020B409002010B51148002101704160C0220F48FAF7E1FA0E4890220021C030FAF7DBFA182212
:406F000000210B48FAF7D6FA0948102181700C21817306494160C03101610649816006494161FAF761FD10BD3C02002064080020B409002027680000E97E0000F8B5002579
:406F4000114C01262F462078002811D001280FD0022802D0032813D111E000F017F8FAF75BF96068002800D12670FAF751F907E02078002806D02078012803D000E0277015
:406F8000002DE0D00020F8BD3C020020FEB51F4D1F4E0027FF2400200C2141438919C978002901D0044602E0401C0228F4D3FF2C2AD0FAF731F90C204443A41921780C224D
:406FC00060685143081801460EC9029301920091076047608760E078401EE0702078401CC0B22070A178884200D127706868002802D06868401E6860FAF70AF9A16800291C
:40700000C8D068468847C5E7FEBD00003C020020B409002010B5830A082B02D008F0E6F810BD00F0CFF810BD10B50C460146207800F042FC0028204603D000F007FF002080
:4070400010BD00F0B8FB1F2010BD10B5820A082A02D008F079F910BD00F056F910BD0000F8B5044640782578000205430020694608702846FFF7E9FF012827D16946A078EB
:407080000978884222D01C498D4208D0891D8D4205D0C91C8D4202D0C91C8D4204D11221284600F071F80CE00022022805D32079E178000201430A05120D12212846FFF727
:4070C000A9FF204607F0D4FF1220F8BD0B4EA80A08282A4631460AD0E01C08F07FF9204607F0C6FF3146284600F00AF8F8BDE01C00F018F9F3E700000D200000CC090020C2
:40710000F8B50D4604460020694608701A48844208D0801D844205D0C01C844202D0C01C844201D101200870A00A08280A462946204609D008F0A4F90646684600780028FE
:4071400005D0012815D110E000F006F9F4E70022002D05D068782978000201430A05120D31462046FFF756FF03E03146204600F00BF83046F8BD00000D2000000148407A22
:407180007047000028080020F8B5054600200E4600906946082000F007FB002801D00720F8BD009C0F202070A670FFF7E7FFE0702571280A6071042060702146FF20FFF788
:4071C00033FFF8BDF7B5064682B000204B4A4C4B00900420B11AF718964218D008DC002F0FD0012F0FD0052F0FD00D2F12D10CE0032908D005290CD006290AD0072909D1A4
:4072000001E0072006E00C2004E0052002E00B2000E006206946001D00F0C6FA002802D0072005B0F0BD009D31462846039A00F085F8334804241338301803D0052801D086
